{
  "contractName": "Dex",
  "abi": [
    {
      "anonymous": false,
      "inputs": [
        {
          "indexed": true,
          "internalType": "address",
          "name": "previousOwner",
          "type": "address"
        },
        {
          "indexed": true,
          "internalType": "address",
          "name": "newOwner",
          "type": "address"
        }
      ],
      "name": "OwnershipTransferred",
      "type": "event"
    },
    {
      "inputs": [
        {
          "internalType": "bytes32",
          "name": "ticker",
          "type": "bytes32"
        },
        {
          "internalType": "address",
          "name": "tokenAddress",
          "type": "address"
        }
      ],
      "name": "addToken",
      "outputs": [],
      "stateMutability": "nonpayable",
      "type": "function"
    },
    {
      "inputs": [
        {
          "internalType": "address",
          "name": "",
          "type": "address"
        },
        {
          "internalType": "bytes32",
          "name": "",
          "type": "bytes32"
        }
      ],
      "name": "balances",
      "outputs": [
        {
          "internalType": "uint256",
          "name": "",
          "type": "uint256"
        }
      ],
      "stateMutability": "view",
      "type": "function",
      "constant": true
    },
    {
      "inputs": [
        {
          "internalType": "uint256",
          "name": "amount",
          "type": "uint256"
        },
        {
          "internalType": "bytes32",
          "name": "ticker",
          "type": "bytes32"
        }
      ],
      "name": "deposit",
      "outputs": [],
      "stateMutability": "nonpayable",
      "type": "function"
    },
    {
      "inputs": [],
      "name": "depositEth",
      "outputs": [],
      "stateMutability": "payable",
      "type": "function",
      "payable": true
    },
    {
      "inputs": [],
      "name": "nextOrderId",
      "outputs": [
        {
          "internalType": "uint256",
          "name": "",
          "type": "uint256"
        }
      ],
      "stateMutability": "view",
      "type": "function",
      "constant": true
    },
    {
      "inputs": [
        {
          "internalType": "bytes32",
          "name": "",
          "type": "bytes32"
        },
        {
          "internalType": "uint256",
          "name": "",
          "type": "uint256"
        },
        {
          "internalType": "uint256",
          "name": "",
          "type": "uint256"
        }
      ],
      "name": "orderBook",
      "outputs": [
        {
          "internalType": "uint256",
          "name": "id",
          "type": "uint256"
        },
        {
          "internalType": "address",
          "name": "trader",
          "type": "address"
        },
        {
          "internalType": "enum Dex.Side",
          "name": "side",
          "type": "uint8"
        },
        {
          "internalType": "bytes32",
          "name": "ticker",
          "type": "bytes32"
        },
        {
          "internalType": "uint256",
          "name": "amount",
          "type": "uint256"
        },
        {
          "internalType": "uint256",
          "name": "price",
          "type": "uint256"
        }
      ],
      "stateMutability": "view",
      "type": "function",
      "constant": true
    },
    {
      "inputs": [],
      "name": "owner",
      "outputs": [
        {
          "internalType": "address",
          "name": "",
          "type": "address"
        }
      ],
      "stateMutability": "view",
      "type": "function",
      "constant": true
    },
    {
      "inputs": [],
      "name": "renounceOwnership",
      "outputs": [],
      "stateMutability": "nonpayable",
      "type": "function"
    },
    {
      "inputs": [
        {
          "internalType": "uint256",
          "name": "",
          "type": "uint256"
        }
      ],
      "name": "tokenList",
      "outputs": [
        {
          "internalType": "bytes32",
          "name": "",
          "type": "bytes32"
        }
      ],
      "stateMutability": "view",
      "type": "function",
      "constant": true
    },
    {
      "inputs": [
        {
          "internalType": "bytes32",
          "name": "",
          "type": "bytes32"
        }
      ],
      "name": "tokenMapping",
      "outputs": [
        {
          "internalType": "bytes32",
          "name": "ticker",
          "type": "bytes32"
        },
        {
          "internalType": "address",
          "name": "tokenAddress",
          "type": "address"
        }
      ],
      "stateMutability": "view",
      "type": "function",
      "constant": true
    },
    {
      "inputs": [
        {
          "internalType": "address",
          "name": "newOwner",
          "type": "address"
        }
      ],
      "name": "transferOwnership",
      "outputs": [],
      "stateMutability": "nonpayable",
      "type": "function"
    },
    {
      "inputs": [
        {
          "internalType": "uint256",
          "name": "amount",
          "type": "uint256"
        },
        {
          "internalType": "bytes32",
          "name": "ticker",
          "type": "bytes32"
        }
      ],
      "name": "withdraw",
      "outputs": [],
      "stateMutability": "nonpayable",
      "type": "function"
    },
    {
      "inputs": [
        {
          "internalType": "bytes32",
          "name": "ticker",
          "type": "bytes32"
        },
        {
          "internalType": "enum Dex.Side",
          "name": "side",
          "type": "uint8"
        }
      ],
      "name": "getOrderBook",
      "outputs": [
        {
          "components": [
            {
              "internalType": "uint256",
              "name": "id",
              "type": "uint256"
            },
            {
              "internalType": "address",
              "name": "trader",
              "type": "address"
            },
            {
              "internalType": "enum Dex.Side",
              "name": "side",
              "type": "uint8"
            },
            {
              "internalType": "bytes32",
              "name": "ticker",
              "type": "bytes32"
            },
            {
              "internalType": "uint256",
              "name": "amount",
              "type": "uint256"
            },
            {
              "internalType": "uint256",
              "name": "price",
              "type": "uint256"
            }
          ],
          "internalType": "struct Dex.Order[]",
          "name": "",
          "type": "tuple[]"
        }
      ],
      "stateMutability": "view",
      "type": "function",
      "constant": true
    },
    {
      "inputs": [
        {
          "internalType": "enum Dex.Side",
          "name": "side",
          "type": "uint8"
        },
        {
          "internalType": "bytes32",
          "name": "ticker",
          "type": "bytes32"
        },
        {
          "internalType": "uint256",
          "name": "amount",
          "type": "uint256"
        },
        {
          "internalType": "uint256",
          "name": "price",
          "type": "uint256"
        }
      ],
      "name": "createLimitOrder",
      "outputs": [],
      "stateMutability": "nonpayable",
      "type": "function"
    }
  ],
  "bytecode": "0x6080604052600060045534801561001557600080fd5b5060006100266100c960201b60201c565b9050806000806101000a81548173ffffffffffffffffffffffffffffffffffffffff021916908373ffffffffffffffffffffffffffffffffffffffff1602179055508073ffffffffffffffffffffffffffffffffffffffff16600073ffffffffffffffffffffffffffffffffffffffff167f8be0079c531659141344cd1fd0a4f28419497f9722a3daafe3b4186f6b6457e060405160405180910390a3506100d1565b600033905090565b6129c5806100e06000396000f3fe6080604052600436106100dd5760003560e01c80638da5cb5b1161007f578063a8d2021a11610059578063a8d2021a146102a5578063ba58ea68146102ce578063c9630cb01461030b578063f2fde38b14610334576100dd565b80638da5cb5b146102145780639776aacf1461023f5780639ead722214610268576100dd565b8063439370b1116100bb578063439370b11461018c578063667cb4ba146101965780636f3b62f9146101d4578063715018a6146101fd576100dd565b80630bb431b6146100e25780631f14df69146101245780632a58b33014610161575b600080fd5b3480156100ee57600080fd5b50610109600480360381019061010491906120e6565b61035d565b60405161011b9695949392919061256e565b60405180910390f35b34801561013057600080fd5b5061014b60048036038101906101469190611fe0565b6103f0565b6040516101589190612553565b60405180910390f35b34801561016d57600080fd5b50610176610415565b6040516101839190612553565b60405180910390f35b61019461041b565b005b3480156101a257600080fd5b506101bd60048036038101906101b89190612045565b610514565b6040516101cb9291906124aa565b60405180910390f35b3480156101e057600080fd5b506101fb60048036038101906101f69190612135565b610558565b005b34801561020957600080fd5b506102126113f5565b005b34801561022057600080fd5b5061022961152f565b60405161023691906123f2565b60405180910390f35b34801561024b57600080fd5b506102666004803603810190610261919061206e565b611558565b005b34801561027457600080fd5b5061028f600480360381019061028a9190612198565b611693565b60405161029c919061248f565b60405180910390f35b3480156102b157600080fd5b506102cc60048036038101906102c791906121c1565b6116b7565b005b3480156102da57600080fd5b506102f560048036038101906102f091906120aa565b611971565b604051610302919061246d565b60405180910390f35b34801561031757600080fd5b50610332600480360381019061032d91906121c1565b611b32565b005b34801561034057600080fd5b5061035b60048036038101906103569190611fb7565b611d5b565b005b6005602052826000526040600020602052816000526040600020818154811061038557600080fd5b906000526020600020906005020160009250925050508060000154908060010160009054906101000a900473ffffffffffffffffffffffffffffffffffffffff16908060010160149054906101000a900460ff16908060020154908060030154908060040154905086565b6003602052816000526040600020602052806000526040600020600091509150505481565b60045481565b61049e34600360003373ffffffffffffffffffffffffffffffffffffffff1673ffffffffffffffffffffffffffffffffffffffff16815260200190815260200160002060007f4554480000000000000000000000000000000000000000000000000000000000815260200190815260200160002054611f0490919063ffffffff16565b600360003373ffffffffffffffffffffffffffffffffffffffff1673ffffffffffffffffffffffffffffffffffffffff16815260200190815260200160002060007f4554480000000000000000000000000000000000000000000000000000000000815260200190815260200160002081905550565b60016020528060005260406000206000915090508060000154908060010160009054906101000a900473ffffffffffffffffffffffffffffffffffffffff16905082565b60006001811115610592577f4e487b7100000000000000000000000000000000000000000000000000000000600052602160045260246000fd5b8460018111156105cb577f4e487b7100000000000000000000000000000000000000000000000000000000600052602160045260246000fd5b1415610665576105e48183611f1a90919063ffffffff16565b600360003373ffffffffffffffffffffffffffffffffffffffff1673ffffffffffffffffffffffffffffffffffffffff16815260200190815260200160002060007f4554480000000000000000000000000000000000000000000000000000000000815260200190815260200160002054101561066057600080fd5b61073c565b60018081111561069e577f4e487b7100000000000000000000000000000000000000000000000000000000600052602160045260246000fd5b8460018111156106d7577f4e487b7100000000000000000000000000000000000000000000000000000000600052602160045260246000fd5b141561073b5781600360003373ffffffffffffffffffffffffffffffffffffffff1673ffffffffffffffffffffffffffffffffffffffff168152602001908152602001600020600085815260200190815260200160002054101561073a57600080fd5b5b5b600060056000858152602001908152602001600020600086600181111561078c577f4e487b7100000000000000000000000000000000000000000000000000000000600052602160045260246000fd5b81526020019081526020016000209050806040518060c0016040528060045481526020013373ffffffffffffffffffffffffffffffffffffffff168152602001876001811115610805577f4e487b7100000000000000000000000000000000000000000000000000000000600052602160045260246000fd5b81526020018681526020018581526020018481525090806001815401808255809150506001900390600052602060002090600502016000909190919091506000820151816000015560208201518160010160006101000a81548173ffffffffffffffffffffffffffffffffffffffff021916908373ffffffffffffffffffffffffffffffffffffffff16021790555060408201518160010160146101000a81548160ff021916908360018111156108e5577f4e487b7100000000000000000000000000000000000000000000000000000000600052602160045260246000fd5b0217905550606082015181600201556080820151816003015560a08201518160040155505060006001811115610944577f4e487b7100000000000000000000000000000000000000000000000000000000600052602160045260246000fd5b85600181111561097d577f4e487b7100000000000000000000000000000000000000000000000000000000600052602160045260246000fd5b1415610e725760006001828054905061099691906126c9565b90505b8180549050811015610e6c57816001826109b391906126c9565b815481106109ea577f4e487b7100000000000000000000000000000000000000000000000000000000600052603260045260246000fd5b906000526020600020906005020160040154828281548110610a35577f4e487b7100000000000000000000000000000000000000000000000000000000600052603260045260246000fd5b9060005260206000209060050201600401541015610a5257610e6c565b6000828281548110610a8d577f4e487b7100000000000000000000000000000000000000000000000000000000600052603260045260246000fd5b90600052602060002090600502016040518060c0016040529081600082015481526020016001820160009054906101000a900473ffffffffffffffffffffffffffffffffffffffff1673ffffffffffffffffffffffffffffffffffffffff1673ffffffffffffffffffffffffffffffffffffffff1681526020016001820160149054906101000a900460ff166001811115610b51577f4e487b7100000000000000000000000000000000000000000000000000000000600052602160045260246000fd5b6001811115610b89577f4e487b7100000000000000000000000000000000000000000000000000000000600052602160045260246000fd5b81526020016002820154815260200160038201548152602001600482015481525050905082600183610bbb91906126c9565b81548110610bf2577f4e487b7100000000000000000000000000000000000000000000000000000000600052603260045260246000fd5b9060005260206000209060050201838381548110610c39577f4e487b7100000000000000000000000000000000000000000000000000000000600052603260045260246000fd5b9060005260206000209060050201600082015481600001556001820160009054906101000a900473ffffffffffffffffffffffffffffffffffffffff168160010160006101000a81548173ffffffffffffffffffffffffffffffffffffffff021916908373ffffffffffffffffffffffffffffffffffffffff1602179055506001820160149054906101000a900460ff168160010160146101000a81548160ff02191690836001811115610d16577f4e487b7100000000000000000000000000000000000000000000000000000000600052602160045260246000fd5b02179055506002820154816002015560038201548160030155600482015481600401559050508083600184610d4b91906126c9565b81548110610d82577f4e487b7100000000000000000000000000000000000000000000000000000000600052603260045260246000fd5b90600052602060002090600502016000820151816000015560208201518160010160006101000a81548173ffffffffffffffffffffffffffffffffffffffff021916908373ffffffffffffffffffffffffffffffffffffffff16021790555060408201518160010160146101000a81548160ff02191690836001811115610e32577f4e487b7100000000000000000000000000000000000000000000000000000000600052602160045260246000fd5b0217905550606082015181600201556080820151816003015560a08201518160040155905050508080610e6490612774565b915050610999565b506113d6565b600180811115610eab577f4e487b7100000000000000000000000000000000000000000000000000000000600052602160045260246000fd5b856001811115610ee4577f4e487b7100000000000000000000000000000000000000000000000000000000600052602160045260246000fd5b14156113d557600060018280549050610efd91906126c9565b90505b81805490508110156113d35781600182610f1a91906126c9565b81548110610f51577f4e487b7100000000000000000000000000000000000000000000000000000000600052603260045260246000fd5b906000526020600020906005020160040154828281548110610f9c577f4e487b7100000000000000000000000000000000000000000000000000000000600052603260045260246000fd5b9060005260206000209060050201600401541115610fb9576113d3565b6000828281548110610ff4577f4e487b7100000000000000000000000000000000000000000000000000000000600052603260045260246000fd5b90600052602060002090600502016040518060c0016040529081600082015481526020016001820160009054906101000a900473ffffffffffffffffffffffffffffffffffffffff1673ffffffffffffffffffffffffffffffffffffffff1673ffffffffffffffffffffffffffffffffffffffff1681526020016001820160149054906101000a900460ff1660018111156110b8577f4e487b7100000000000000000000000000000000000000000000000000000000600052602160045260246000fd5b60018111156110f0577f4e487b7100000000000000000000000000000000000000000000000000000000600052602160045260246000fd5b8152602001600282015481526020016003820154815260200160048201548152505090508260018361112291906126c9565b81548110611159577f4e487b7100000000000000000000000000000000000000000000000000000000600052603260045260246000fd5b90600052602060002090600502018383815481106111a0577f4e487b7100000000000000000000000000000000000000000000000000000000600052603260045260246000fd5b9060005260206000209060050201600082015481600001556001820160009054906101000a900473ffffffffffffffffffffffffffffffffffffffff168160010160006101000a81548173ffffffffffffffffffffffffffffffffffffffff021916908373ffffffffffffffffffffffffffffffffffffffff1602179055506001820160149054906101000a900460ff168160010160146101000a81548160ff0219169083600181111561127d577f4e487b7100000000000000000000000000000000000000000000000000000000600052602160045260246000fd5b021790555060028201548160020155600382015481600301556004820154816004015590505080836001846112b291906126c9565b815481106112e9577f4e487b7100000000000000000000000000000000000000000000000000000000600052603260045260246000fd5b90600052602060002090600502016000820151816000015560208201518160010160006101000a81548173ffffffffffffffffffffffffffffffffffffffff021916908373ffffffffffffffffffffffffffffffffffffffff16021790555060408201518160010160146101000a81548160ff02191690836001811115611399577f4e487b7100000000000000000000000000000000000000000000000000000000600052602160045260246000fd5b0217905550606082015181600201556080820151816003015560a082015181600401559050505080806113cb90612774565b915050610f00565b505b5b600460008154809291906113e99061279e565b91905055505050505050565b6113fd611f30565b73ffffffffffffffffffffffffffffffffffffffff1661141b61152f565b73ffffffffffffffffffffffffffffffffffffffff1614611471576040517f08c379a000000000000000000000000000000000000000000000000000000000815260040161146890612513565b60405180910390fd5b600073ffffffffffffffffffffffffffffffffffffffff1660008054906101000a900473ffffffffffffffffffffffffffffffffffffffff1673ffffffffffffffffffffffffffffffffffffffff167f8be0079c531659141344cd1fd0a4f28419497f9722a3daafe3b4186f6b6457e060405160405180910390a360008060006101000a81548173ffffffffffffffffffffffffffffffffffffffff021916908373ffffffffffffffffffffffffffffffffffffffff160217905550565b60008060009054906101000a900473ffffffffffffffffffffffffffffffffffffffff16905090565b611560611f30565b73ffffffffffffffffffffffffffffffffffffffff1661157e61152f565b73ffffffffffffffffffffffffffffffffffffffff16146115d4576040517f08c379a00000000000000000000000000000000000000000000000000000000081526004016115cb90612513565b60405180910390fd5b60405180604001604052808381526020018273ffffffffffffffffffffffffffffffffffffffff16815250600160008481526020019081526020016000206000820151816000015560208201518160010160006101000a81548173ffffffffffffffffffffffffffffffffffffffff021916908373ffffffffffffffffffffffffffffffffffffffff16021790555090505060028290806001815401808255809150506001900390600052602060002001600090919091909150555050565b600281815481106116a357600080fd5b906000526020600020016000915090505481565b80600073ffffffffffffffffffffffffffffffffffffffff166001600083815260200190815260200160002060010160009054906101000a900473ffffffffffffffffffffffffffffffffffffffff1673ffffffffffffffffffffffffffffffffffffffff16141561175e576040517f08c379a0000000000000000000000000000000000000000000000000000000008152600401611755906124f3565b60405180910390fd5b82600360003373ffffffffffffffffffffffffffffffffffffffff1673ffffffffffffffffffffffffffffffffffffffff16815260200190815260200160002060008481526020019081526020016000205410156117f1576040517f08c379a00000000000000000000000000000000000000000000000000000000081526004016117e890612533565b60405180910390fd5b61185483600360003373ffffffffffffffffffffffffffffffffffffffff1673ffffffffffffffffffffffffffffffffffffffff168152602001908152602001600020600085815260200190815260200160002054611f3890919063ffffffff16565b600360003373ffffffffffffffffffffffffffffffffffffffff1673ffffffffffffffffffffffffffffffffffffffff1681526020019081526020016000206000848152602001908152602001600020819055506001600083815260200190815260200160002060010160009054906101000a900473ffffffffffffffffffffffffffffffffffffffff1673ffffffffffffffffffffffffffffffffffffffff1663a9059cbb33856040518363ffffffff1660e01b8152600401611919929190612444565b602060405180830381600087803b15801561193357600080fd5b505af1158015611947573d6000803e3d6000fd5b505050506040513d601f19601f8201168201806040525081019061196b919061201c565b50505050565b60606005600084815260200190815260200160002060008360018111156119c1577f4e487b7100000000000000000000000000000000000000000000000000000000600052602160045260246000fd5b8152602001908152602001600020805480602002602001604051908101604052809291908181526020016000905b82821015611b2657838290600052602060002090600502016040518060c0016040529081600082015481526020016001820160009054906101000a900473ffffffffffffffffffffffffffffffffffffffff1673ffffffffffffffffffffffffffffffffffffffff1673ffffffffffffffffffffffffffffffffffffffff1681526020016001820160149054906101000a900460ff166001811115611abd577f4e487b7100000000000000000000000000000000000000000000000000000000600052602160045260246000fd5b6001811115611af5577f4e487b7100000000000000000000000000000000000000000000000000000000600052602160045260246000fd5b81526020016002820154815260200160038201548152602001600482015481525050815260200190600101906119ef565b50505050905092915050565b80600073ffffffffffffffffffffffffffffffffffffffff166001600083815260200190815260200160002060010160009054906101000a900473ffffffffffffffffffffffffffffffffffffffff1673ffffffffffffffffffffffffffffffffffffffff161415611bd9576040517f08c379a0000000000000000000000000000000000000000000000000000000008152600401611bd0906124f3565b60405180910390fd5b611c3c83600360003373ffffffffffffffffffffffffffffffffffffffff1673ffffffffffffffffffffffffffffffffffffffff168152602001908152602001600020600085815260200190815260200160002054611f0490919063ffffffff16565b600360003373ffffffffffffffffffffffffffffffffffffffff1673ffffffffffffffffffffffffffffffffffffffff1681526020019081526020016000206000848152602001908152602001600020819055506001600083815260200190815260200160002060010160009054906101000a900473ffffffffffffffffffffffffffffffffffffffff1673ffffffffffffffffffffffffffffffffffffffff166323b872dd3330866040518463ffffffff1660e01b8152600401611d039392919061240d565b602060405180830381600087803b158015611d1d57600080fd5b505af1158015611d31573d6000803e3d6000fd5b505050506040513d601f19601f82011682018060405250810190611d55919061201c565b50505050565b611d63611f30565b73ffffffffffffffffffffffffffffffffffffffff16611d8161152f565b73ffffffffffffffffffffffffffffffffffffffff1614611dd7576040517f08c379a0000000000000000000000000000000000000000000000000000000008152600401611dce90612513565b60405180910390fd5b600073ffffffffffffffffffffffffffffffffffffffff168173ffffffffffffffffffffffffffffffffffffffff161415611e47576040517f08c379a0000000000000000000000000000000000000000000000000000000008152600401611e3e906124d3565b60405180910390fd5b8073ffffffffffffffffffffffffffffffffffffffff1660008054906101000a900473ffffffffffffffffffffffffffffffffffffffff1673ffffffffffffffffffffffffffffffffffffffff167f8be0079c531659141344cd1fd0a4f28419497f9722a3daafe3b4186f6b6457e060405160405180910390a3806000806101000a81548173ffffffffffffffffffffffffffffffffffffffff021916908373ffffffffffffffffffffffffffffffffffffffff16021790555050565b60008183611f129190612619565b905092915050565b60008183611f28919061266f565b905092915050565b600033905090565b60008183611f4691906126c9565b905092915050565b600081359050611f5d81612923565b92915050565b600081519050611f728161293a565b92915050565b600081359050611f8781612951565b92915050565b600081359050611f9c81612968565b92915050565b600081359050611fb181612978565b92915050565b600060208284031215611fc957600080fd5b6000611fd784828501611f4e565b91505092915050565b60008060408385031215611ff357600080fd5b600061200185828601611f4e565b925050602061201285828601611f78565b9150509250929050565b60006020828403121561202e57600080fd5b600061203c84828501611f63565b91505092915050565b60006020828403121561205757600080fd5b600061206584828501611f78565b91505092915050565b6000806040838503121561208157600080fd5b600061208f85828601611f78565b92505060206120a085828601611f4e565b9150509250929050565b600080604083850312156120bd57600080fd5b60006120cb85828601611f78565b92505060206120dc85828601611f8d565b9150509250929050565b6000806000606084860312156120fb57600080fd5b600061210986828701611f78565b935050602061211a86828701611fa2565b925050604061212b86828701611fa2565b9150509250925092565b6000806000806080858703121561214b57600080fd5b600061215987828801611f8d565b945050602061216a87828801611f78565b935050604061217b87828801611fa2565b925050606061218c87828801611fa2565b91505092959194509250565b6000602082840312156121aa57600080fd5b60006121b884828501611fa2565b91505092915050565b600080604083850312156121d457600080fd5b60006121e285828601611fa2565b92505060206121f385828601611f78565b9150509250929050565b60006122098383612359565b60c08301905092915050565b61221e816126fd565b82525050565b61222d816126fd565b82525050565b600061223e826125df565b61224881856125f7565b9350612253836125cf565b8060005b8381101561228457815161226b88826121fd565b9750612276836125ea565b925050600181019050612257565b5085935050505092915050565b61229a8161271b565b82525050565b6122a98161271b565b82525050565b6122b881612762565b82525050565b6122c781612762565b82525050565b60006122da602683612608565b91506122e582612845565b604082019050919050565b60006122fd601483612608565b915061230882612894565b602082019050919050565b6000612320602083612608565b915061232b826128bd565b602082019050919050565b6000612343601683612608565b915061234e826128e6565b602082019050919050565b60c08201600082015161236f60008501826123d4565b5060208201516123826020850182612215565b50604082015161239560408501826122af565b5060608201516123a86060850182612291565b5060808201516123bb60808501826123d4565b5060a08201516123ce60a08501826123d4565b50505050565b6123dd81612758565b82525050565b6123ec81612758565b82525050565b60006020820190506124076000830184612224565b92915050565b60006060820190506124226000830186612224565b61242f6020830185612224565b61243c60408301846123e3565b949350505050565b60006040820190506124596000830185612224565b61246660208301846123e3565b9392505050565b600060208201905081810360008301526124878184612233565b905092915050565b60006020820190506124a460008301846122a0565b92915050565b60006040820190506124bf60008301856122a0565b6124cc6020830184612224565b9392505050565b600060208201905081810360008301526124ec816122cd565b9050919050565b6000602082019050818103600083015261250c816122f0565b9050919050565b6000602082019050818103600083015261252c81612313565b9050919050565b6000602082019050818103600083015261254c81612336565b9050919050565b600060208201905061256860008301846123e3565b92915050565b600060c08201905061258360008301896123e3565b6125906020830188612224565b61259d60408301876122be565b6125aa60608301866122a0565b6125b760808301856123e3565b6125c460a08301846123e3565b979650505050505050565b6000819050602082019050919050565b600081519050919050565b6000602082019050919050565b600082825260208201905092915050565b600082825260208201905092915050565b600061262482612758565b915061262f83612758565b9250827fffffffffffffffffffffffffffffffffffffffffffffffffffffffffffffffff03821115612664576126636127e7565b5b828201905092915050565b600061267a82612758565b915061268583612758565b9250817fffffffffffffffffffffffffffffffffffffffffffffffffffffffffffffffff04831182151516156126be576126bd6127e7565b5b828202905092915050565b60006126d482612758565b91506126df83612758565b9250828210156126f2576126f16127e7565b5b828203905092915050565b600061270882612738565b9050919050565b60008115159050919050565b6000819050919050565b60008190506127338261290f565b919050565b600073ffffffffffffffffffffffffffffffffffffffff82169050919050565b6000819050919050565b600061276d82612725565b9050919050565b600061277f82612758565b91506000821415612793576127926127e7565b5b600182039050919050565b60006127a982612758565b91507fffffffffffffffffffffffffffffffffffffffffffffffffffffffffffffffff8214156127dc576127db6127e7565b5b600182019050919050565b7f4e487b7100000000000000000000000000000000000000000000000000000000600052601160045260246000fd5b7f4e487b7100000000000000000000000000000000000000000000000000000000600052602160045260246000fd5b7f4f776e61626c653a206e6577206f776e657220697320746865207a65726f206160008201527f6464726573730000000000000000000000000000000000000000000000000000602082015250565b7f546f6b656e20646f6573206e6f74206578697374000000000000000000000000600082015250565b7f4f776e61626c653a2063616c6c6572206973206e6f7420746865206f776e6572600082015250565b7f42616c616e6365206e6f742073756666696369656e7400000000000000000000600082015250565b600281106129205761291f612816565b5b50565b61292c816126fd565b811461293757600080fd5b50565b6129438161270f565b811461294e57600080fd5b50565b61295a8161271b565b811461296557600080fd5b50565b6002811061297557600080fd5b50565b61298181612758565b811461298c57600080fd5b5056fea2646970667358221220b8f711daf8c75aef466887d061eb63fe59ab6e36fb50057b5bdee67007e429de64736f6c63430008040033",
  "immutableReferences": {},
  "source": "// SPDX-License-Identifier: MIT\r\n\r\npragma solidity ^0.8.0;\r\npragma experimental ABIEncoderV2;\r\n\r\nimport \"../contracts/wallet.sol\";\r\n\r\ncontract Dex is Wallet {\r\n\r\n    using SafeMath for uint256;\r\n\r\n    enum Side {\r\n    BUY,\r\n    SELL\r\n    }\r\n\r\n    struct Order {\r\n        uint id;\r\n        address trader;\r\n        Side side;\r\n        bytes32 ticker;\r\n        uint amount;\r\n        uint price;\r\n    }\r\n\r\n    uint public nextOrderId = 0;\r\n\r\n    mapping(bytes32 => mapping(uint => Order[])) public orderBook;\r\n\r\n    function getOrderBook(bytes32 ticker, Side side) view public returns(Order[] memory) {\r\n        return orderBook[ticker][uint(side)];\r\n    }\r\n\r\n\r\n    //function createLimitOrder(side, ticker, amount, price)\r\n    function createLimitOrder(Side side, bytes32 ticker, uint amount, uint price) public {\r\n        if(side == Side.BUY){\r\n            require(balances[msg.sender][\"ETH\"] >= amount.mul(price));\r\n        }\r\n        else if(side == Side.SELL) {\r\n            require(balances[msg.sender][ticker] >= amount);\r\n        }\r\n\r\n        Order[] storage orders = orderBook[ticker][uint(side)];\r\n        orders.push(Order(nextOrderId, msg.sender, side, ticker, amount, price));\r\n\r\n        // Bubble sort\r\n        if(side == Side.BUY) {\r\n            for (uint256 i=orders.length-1; i<orders.length; i--) {\r\n                if (orders[i].price < orders[i-1].price) {\r\n                    break;\r\n                }  \r\n                Order memory right = orders[i];\r\n                orders[i] = orders[i-1];\r\n                orders[i-1] = right;\r\n            }   \r\n        }\r\n        else if(side == Side.SELL) {\r\n            for (uint256 i=orders.length-1; i<orders.length; i--) {\r\n                if (orders[i].price > orders[i-1].price) {\r\n                    break;\r\n                } \r\n                Order memory right = orders[i];\r\n                orders[i] = orders[i-1];\r\n                orders[i-1] = right;    \r\n            } \r\n        }\r\n\r\n\r\n        nextOrderId++;\r\n\r\n    }\r\n\r\n}",
  "sourcePath": "C:/Users/Work/Documents/Ethereum-201/dex/contracts/dex.sol",
  "compiler": {
    "name": "solc",
    "version": "0.8.4+commit.c7e474f2.Emscripten.clang"
  },
  "schemaVersion": "3.4.0",
  "updatedAt": "2021-05-24T15:41:13.178Z",
  "networkType": "ethereum",
  "devdoc": {
    "kind": "dev",
    "methods": {
      "owner()": {
        "details": "Returns the address of the current owner."
      },
      "renounceOwnership()": {
        "details": "Leaves the contract without owner. It will not be possible to call `onlyOwner` functions anymore. Can only be called by the current owner. NOTE: Renouncing ownership will leave the contract without an owner, thereby removing any functionality that is only available to the owner."
      },
      "transferOwnership(address)": {
        "details": "Transfers ownership of the contract to a new account (`newOwner`). Can only be called by the current owner."
      }
    },
    "version": 1
  },
  "userdoc": {
    "kind": "user",
    "methods": {},
    "version": 1
  }
}